{
  "contractName": "Election",
  "abi": [
    {
      "constant": true,
      "inputs": [],
      "name": "candidatesCount",
      "outputs": [
        {
          "name": "",
          "type": "uint256"
        }
      ],
      "payable": false,
      "stateMutability": "view",
      "type": "function",
      "signature": "0x2d35a8a2"
    },
    {
      "constant": true,
      "inputs": [
        {
          "name": "",
          "type": "uint256"
        }
      ],
      "name": "candidates",
      "outputs": [
        {
          "name": "id",
          "type": "uint256"
        },
        {
          "name": "name",
          "type": "string"
        },
        {
          "name": "voteCount",
          "type": "uint256"
        }
      ],
      "payable": false,
      "stateMutability": "view",
      "type": "function",
      "signature": "0x3477ee2e"
    },
    {
      "inputs": [],
      "payable": false,
      "stateMutability": "nonpayable",
      "type": "constructor",
      "signature": "constructor"
    },
    {
      "constant": false,
      "inputs": [
        {
          "name": "_name",
          "type": "string"
        }
      ],
      "name": "addCandidate",
      "outputs": [],
      "payable": false,
      "stateMutability": "nonpayable",
      "type": "function",
      "signature": "0x462e91ec"
    }
  ],
  "bytecode": "0x608060405234801561001057600080fd5b50336000806101000a81548173ffffffffffffffffffffffffffffffffffffffff021916908373ffffffffffffffffffffffffffffffffffffffff16021790555061009e6040805190810160405280600b81526020017f43616e64696461746520310000000000000000000000000000000000000000008152506100f0640100000000026401000000009004565b6100eb6040805190810160405280600b81526020017f43616e64696461746520320000000000000000000000000000000000000000008152506100f0640100000000026401000000009004565b61026d565b6000809054906101000a900473ffffffffffffffffffffffffffffffffffffffff1673ffffffffffffffffffffffffffffffffffffffff163373ffffffffffffffffffffffffffffffffffffffff1614151561014b57600080fd5b600260008154809291906001019190505550606060405190810160405280600254815260200182815260200160008152506001600060025481526020019081526020016000206000820151816000015560208201518160010190805190602001906101b79291906101c8565b506040820151816002015590505050565b828054600181600116156101000203166002900490600052602060002090601f016020900481019282601f1061020957805160ff1916838001178555610237565b82800160010185558215610237579182015b8281111561023657825182559160200191906001019061021b565b5b5090506102449190610248565b5090565b61026a91905b8082111561026657600081600090555060010161024e565b5090565b90565b6104828061027c6000396000f3fe608060405260043610610057576000357c0100000000000000000000000000000000000000000000000000000000900463ffffffff1680632d35a8a21461005c5780633477ee2e14610087578063462e91ec14610149575b600080fd5b34801561006857600080fd5b50610071610211565b6040518082815260200191505060405180910390f35b34801561009357600080fd5b506100c0600480360360208110156100aa57600080fd5b8101908080359060200190929190505050610217565b6040518084815260200180602001838152602001828103825284818151815260200191508051906020019080838360005b8381101561010c5780820151818401526020810190506100f1565b50505050905090810190601f1680156101395780820380516001836020036101000a031916815260200191505b5094505050505060405180910390f35b34801561015557600080fd5b5061020f6004803603602081101561016c57600080fd5b810190808035906020019064010000000081111561018957600080fd5b82018360208201111561019b57600080fd5b803590602001918460018302840111640100000000831117156101bd57600080fd5b91908080601f016020809104026020016040519081016040528093929190818152602001838380828437600081840152601f19601f8201169050808301925050505050505091929192905050506102d9565b005b60025481565b6001602052806000526040600020600091509050806000015490806001018054600181600116156101000203166002900480601f0160208091040260200160405190810160405280929190818152602001828054600181600116156101000203166002900480156102c95780601f1061029e576101008083540402835291602001916102c9565b820191906000526020600020905b8154815290600101906020018083116102ac57829003601f168201915b5050505050908060020154905083565b6000809054906101000a900473ffffffffffffffffffffffffffffffffffffffff1673ffffffffffffffffffffffffffffffffffffffff163373ffffffffffffffffffffffffffffffffffffffff1614151561033457600080fd5b600260008154809291906001019190505550606060405190810160405280600254815260200182815260200160008152506001600060025481526020019081526020016000206000820151816000015560208201518160010190805190602001906103a09291906103b1565b506040820151816002015590505050565b828054600181600116156101000203166002900490600052602060002090601f016020900481019282601f106103f257805160ff1916838001178555610420565b82800160010185558215610420579182015b8281111561041f578251825591602001919060010190610404565b5b50905061042d9190610431565b5090565b61045391905b8082111561044f576000816000905550600101610437565b5090565b9056fea165627a7a72305820a5e1b036cd6b2510e95382c6327c18cdea3e283eda5ebd3ba1eb421d6d882f220029",
  "source": "pragma solidity ^0.5.0;\n\ncontract Election {\n  // Model a candidate\n  // Store candidates\n  // Fetch candidates\n  // Store Candidates Count\n  address private admin;\n\n  struct Candidate {\n    uint id;\n    string name;\n    uint voteCount;\n  }\n\n  mapping(uint => Candidate) public candidates;\n\n  uint public candidatesCount;\n\n  constructor() public {\n    admin = msg.sender;\n    addCandidate(\"Candidate 1\");\n    addCandidate(\"Candidate 2\");\n  }\n\n  function addCandidate(string memory _name) public {\n    require(msg.sender == admin);\n    candidatesCount ++;\n    candidates[candidatesCount] = Candidate(candidatesCount, _name, 0);\n  }\n\n\n}\n",
  "sourcePath": "/Applications/blockchain/dapps/dapp_university/dapps/election/contracts/Election.sol",
  "compiler": {
    "name": "solc",
    "version": "0.5.0+commit.1d4f565a.Emscripten.clang"
  },
  "schemaVersion": "3.0.0",
  "updatedAt": "2019-02-19T17:51:17.810Z",
  "devdoc": {
    "methods": {}
  },
  "userdoc": {
    "methods": {}
  }
}